{
  "contractName": "DappToken",
  "abi": [
    {
      "inputs": [],
      "stateMutability": "nonpayable",
      "type": "constructor"
    },
    {
      "inputs": [],
      "name": "name",
      "outputs": [
        {
          "internalType": "string",
          "name": "",
          "type": "string"
        }
      ],
      "stateMutability": "view",
      "type": "function",
      "constant": true
    },
    {
      "inputs": [],
      "name": "symbol",
      "outputs": [
        {
          "internalType": "string",
          "name": "",
          "type": "string"
        }
      ],
      "stateMutability": "view",
      "type": "function",
      "constant": true
    },
    {
      "inputs": [],
      "name": "totalSupply",
      "outputs": [
        {
          "internalType": "uint256",
          "name": "",
          "type": "uint256"
        }
      ],
      "stateMutability": "view",
      "type": "function",
      "constant": true
    }
  ],
  "bytecode": "0x608060405234801561001057600080fd5b50620f42406000819055506040518060400160405280600981526020017f44617070546f6b656e0000000000000000000000000000000000000000000000815250600190805190602001906100669291906100b8565b506040518060400160405280600381526020017f4441540000000000000000000000000000000000000000000000000000000000815250600290805190602001906100b29291906100b8565b506101bc565b8280546100c49061018a565b90600052602060002090601f0160209004810192826100e6576000855561012d565b82601f106100ff57805160ff191683800117855561012d565b8280016001018555821561012d579182015b8281111561012c578251825591602001919060010190610111565b5b50905061013a919061013e565b5090565b5b8082111561015757600081600090555060010161013f565b5090565b7f4e487b7100000000000000000000000000000000000000000000000000000000600052602260045260246000fd5b600060028204905060018216806101a257607f821691505b602082108114156101b6576101b561015b565b5b50919050565b610348806101cb6000396000f3fe608060405234801561001057600080fd5b50600436106100415760003560e01c806306fdde031461004657806318160ddd1461006457806395d89b4114610082575b600080fd5b61004e6100a0565b60405161005b919061025b565b60405180910390f35b61006c61012e565b6040516100799190610296565b60405180910390f35b61008a610134565b604051610097919061025b565b60405180910390f35b600180546100ad906102e0565b80601f01602080910402602001604051908101604052809291908181526020018280546100d9906102e0565b80156101265780601f106100fb57610100808354040283529160200191610126565b820191906000526020600020905b81548152906001019060200180831161010957829003601f168201915b505050505081565b60005481565b60028054610141906102e0565b80601f016020809104026020016040519081016040528092919081815260200182805461016d906102e0565b80156101ba5780601f1061018f576101008083540402835291602001916101ba565b820191906000526020600020905b81548152906001019060200180831161019d57829003601f168201915b505050505081565b600081519050919050565b600082825260208201905092915050565b60005b838110156101fc5780820151818401526020810190506101e1565b8381111561020b576000848401525b50505050565b6000601f19601f8301169050919050565b600061022d826101c2565b61023781856101cd565b93506102478185602086016101de565b61025081610211565b840191505092915050565b600060208201905081810360008301526102758184610222565b905092915050565b6000819050919050565b6102908161027d565b82525050565b60006020820190506102ab6000830184610287565b92915050565b7f4e487b7100000000000000000000000000000000000000000000000000000000600052602260045260246000fd5b600060028204905060018216806102f857607f821691505b6020821081141561030c5761030b6102b1565b5b5091905056fea2646970667358221220ce69278272c634f6de709deab74e674074dde40b39ff83929f2a0431ef44882164736f6c634300080a0033",
  "immutableReferences": {},
  "source": "pragma solidity ^0.8.10;\r\n\r\ncontract DappToken {\r\n    uint256 public totalSupply;\r\n    string public name;\r\n    string public symbol;\r\n\r\n    constructor() {\r\n        totalSupply = 1000000;\r\n        name = \"DappToken\";\r\n        symbol = \"DAT\";\r\n    }\r\n}",
  "sourcePath": "C:\\Users\\Techfast australia\\Documents\\Programming\\Erc20Token\\contracts\\DappToken.sol",
  "compiler": {
    "name": "solc",
    "version": "0.8.10+commit.fc410830.Emscripten.clang"
  },
  "schemaVersion": "3.4.3",
  "updatedAt": "2021-11-28T04:28:18.051Z",
  "networkType": "ethereum",
  "devdoc": {
    "kind": "dev",
    "methods": {},
    "version": 1
  },
  "userdoc": {
    "kind": "user",
    "methods": {},
    "version": 1
  }
}